{
  "contractName": "SimpleSidetreeAnchor",
  "abi": [
    {
      "constant": true,
      "inputs": [],
      "name": "transactionNumber",
      "outputs": [
        {
          "name": "",
          "type": "uint256"
        }
      ],
      "payable": false,
      "stateMutability": "view",
      "type": "function"
    },
    {
      "anonymous": false,
      "inputs": [
        {
          "indexed": false,
          "name": "anchorFileHash",
          "type": "bytes32"
        },
        {
          "indexed": true,
          "name": "transactionNumber",
          "type": "uint256"
        },
        {
          "indexed": false,
          "name": "numberOfOperations",
          "type": "uint256"
        }
      ],
      "name": "Anchor",
      "type": "event"
    },
    {
      "constant": false,
      "inputs": [
        {
          "name": "_anchorHash",
          "type": "bytes32"
        },
        {
          "name": "_numberOfOperations",
          "type": "uint256"
        }
      ],
      "name": "anchorHash",
      "outputs": [],
      "payable": false,
      "stateMutability": "nonpayable",
      "type": "function"
    }
  ],
  "bytecode": "0x60806040526000805534801561001457600080fd5b50610145806100246000396000f3fe60806040526004361061004c576000357c0100000000000000000000000000000000000000000000000000000000900463ffffffff1680634cd27ad514610051578063aac4c5c414610096575b600080fd5b34801561005d57600080fd5b506100946004803603604081101561007457600080fd5b8101908080359060200190929190803590602001909291905050506100c1565b005b3480156100a257600080fd5b506100ab610113565b6040518082815260200191505060405180910390f35b6000547fafa278e8ed772648a0f54815c3d0fa589f66454629b3be9405ed2e3d805bbeba8383604051808381526020018281526020019250505060405180910390a26001600054016000819055505050565b6000548156fea165627a7a72305820d656437298495707b405851e9819c446ad0e730ba025695d7af387143fe8f37a0029",
  "source": "pragma solidity 0.5.0;\n\ncontract SimpleSidetreeAnchor {\n    uint256 public transactionNumber = 0;\n\n    event Anchor(bytes32 anchorFileHash, uint256 indexed transactionNumber, uint numberOfOperations);\n\n    function anchorHash(bytes32 _anchorHash, uint _numberOfOperations) public {\n        emit Anchor(_anchorHash, transactionNumber, _numberOfOperations);\n        transactionNumber = transactionNumber + 1;\n    }\n}\n",
  "sourcePath": "/home/gjgd/sidetree.js/packages/ethereum/contracts/SimpleSidetreeAnchor.sol",
  "compiler": {
    "name": "solc",
    "version": "0.5.0+commit.1d4f565a.Emscripten.clang"
  },
  "schemaVersion": "3.2.3",
  "updatedAt": "2020-08-25T13:19:23.277Z",
  "networkType": "ethereum",
  "devdoc": {
    "methods": {}
  },
  "userdoc": {
    "methods": {}
  }
}