{
  "contractName": "SimpleSidetreeAnchor",
  "abi": [
    {
      "anonymous": false,
      "inputs": [
        {
          "indexed": false,
          "internalType": "bytes32",
          "name": "anchorFileHash",
          "type": "bytes32"
        },
        {
          "indexed": true,
          "internalType": "uint256",
          "name": "transactionNumber",
          "type": "uint256"
        },
        {
          "indexed": false,
          "internalType": "uint256",
          "name": "numberOfOperations",
          "type": "uint256"
        },
        {
          "indexed": false,
          "internalType": "address",
          "name": "writer",
          "type": "address"
        }
      ],
      "name": "Anchor",
      "type": "event"
    },
    {
      "inputs": [],
      "name": "transactionNumber",
      "outputs": [
        {
          "internalType": "uint256",
          "name": "",
          "type": "uint256"
        }
      ],
      "stateMutability": "view",
      "type": "function"
    },
    {
      "inputs": [
        {
          "internalType": "bytes32",
          "name": "_anchorHash",
          "type": "bytes32"
        },
        {
          "internalType": "uint256",
          "name": "_numberOfOperations",
          "type": "uint256"
        }
      ],
      "name": "anchorHash",
      "outputs": [],
      "stateMutability": "nonpayable",
      "type": "function"
    }
  ],
  "bytecode": "0x60806040526000805534801561001457600080fd5b506102cd806100246000396000f3fe608060405234801561001057600080fd5b50600436106100365760003560e01c80634cd27ad51461003b578063aac4c5c414610057575b600080fd5b61005560048036038101906100509190610143565b610075565b005b61005f6100cc565b60405161006c9190610192565b60405180910390f35b6000547fb4f61711f79e76c7c0495763576465dc425bc281adf632799374ab5c83bc1d458383336040516100ab939291906101fd565b60405180910390a260016000546100c29190610263565b6000819055505050565b60005481565b600080fd5b6000819050919050565b6100ea816100d7565b81146100f557600080fd5b50565b600081359050610107816100e1565b92915050565b6000819050919050565b6101208161010d565b811461012b57600080fd5b50565b60008135905061013d81610117565b92915050565b6000806040838503121561015a576101596100d2565b5b6000610168858286016100f8565b92505060206101798582860161012e565b9150509250929050565b61018c8161010d565b82525050565b60006020820190506101a76000830184610183565b92915050565b6101b6816100d7565b82525050565b600073ffffffffffffffffffffffffffffffffffffffff82169050919050565b60006101e7826101bc565b9050919050565b6101f7816101dc565b82525050565b600060608201905061021260008301866101ad565b61021f6020830185610183565b61022c60408301846101ee565b949350505050565b7f4e487b7100000000000000000000000000000000000000000000000000000000600052601160045260246000fd5b600061026e8261010d565b91506102798361010d565b925082820190508082111561029157610290610234565b5b9291505056fea2646970667358221220aed0ac7bba1eed997608ea97b47acc5eca88cd64337131671981025dc7b3ed0164736f6c63430008100033",
  "immutableReferences": {},
  "source": "/*\n * Copyright 2020 - Transmute Industries Inc.\n *\n * Licensed under the Apache License, Version 2.0 (the \"License\");\n * you may not use this file except in compliance with the License.\n * You may obtain a copy of the License at\n *     http://www.apache.org/licenses/LICENSE-2.0\n * Unless required by applicable law or agreed to in writing, software\n * distributed under the License is distributed on an \"AS IS\" BASIS,\n * WITHOUT WARRANTIES OR CONDITIONS OF ANY KIND, either express or implied.\n * See the License for the specific language governing permissions and\n * limitations under the License.\n */\n\npragma solidity 0.8.16;\n\ncontract SimpleSidetreeAnchor {\n    uint256 public transactionNumber = 0;\n\n    event Anchor(\n        bytes32 anchorFileHash,\n        uint256 indexed transactionNumber,\n        uint256 numberOfOperations,\n        address writer\n    );\n\n    function anchorHash(bytes32 _anchorHash, uint256 _numberOfOperations)\n        public\n    {\n        emit Anchor(_anchorHash, transactionNumber, _numberOfOperations , msg.sender);\n        transactionNumber = transactionNumber + 1;\n    }\n}\n\n",
  "sourcePath": "/home/vriera/extrimian/transmute/sidetree.js/packages/ledger-ethereum/contracts/SimpleSidetreeAnchor.sol",
  "compiler": {
    "name": "solc",
    "version": "0.8.16+commit.07a7930e.Emscripten.clang"
  },
  "schemaVersion": "3.4.9",
  "updatedAt": "2022-08-26T16:23:58.705Z",
  "devdoc": {
    "kind": "dev",
    "methods": {},
    "version": 1
  },
  "userdoc": {
    "kind": "user",
    "methods": {},
    "version": 1
  }
}