{
  "contractName": "SimpleSidetreeAnchor",
  "abi": [
    {
      "constant": true,
      "inputs": [],
      "name": "transactionNumber",
      "outputs": [
        {
          "name": "",
          "type": "uint256"
        }
      ],
      "payable": false,
      "stateMutability": "view",
      "type": "function"
    },
    {
      "anonymous": false,
      "inputs": [
        {
          "indexed": false,
          "name": "anchorFileHash",
          "type": "bytes32"
        },
        {
          "indexed": true,
          "name": "transactionNumber",
          "type": "uint256"
        }
      ],
      "name": "Anchor",
      "type": "event"
    },
    {
      "constant": false,
      "inputs": [
        {
          "name": "_anchorHash",
          "type": "bytes32"
        }
      ],
      "name": "anchorHash",
      "outputs": [],
      "payable": false,
      "stateMutability": "nonpayable",
      "type": "function"
    }
  ],
  "bytecode": "0x60806040526000805534801561001457600080fd5b50610128806100246000396000f3fe6080604052600436106049576000357c0100000000000000000000000000000000000000000000000000000000900463ffffffff16806392677c6914604e578063aac4c5c4146085575b600080fd5b348015605957600080fd5b50608360048036036020811015606e57600080fd5b810190808035906020019092919050505060ad565b005b348015609057600080fd5b50609760f6565b6040518082815260200191505060405180910390f35b6000547f5890dfddefcf0f55584aabc2ffa20af9345469cb722d5df543848b0bf124e8a1826040518082815260200191505060405180910390a260016000540160008190555050565b6000548156fea165627a7a7230582092574d9f4b0cc4ad76ee9a897a417af67c46de3b43058d08cc38119d6f1318c20029",
  "source": "pragma solidity 0.5.0;\n\ncontract SimpleSidetreeAnchor {\n    uint256 public transactionNumber = 0;\n    event Anchor(bytes32 anchorFileHash, uint256 indexed transactionNumber);\n    function anchorHash(bytes32 _anchorHash) public {\n        emit Anchor(_anchorHash, transactionNumber);\n        transactionNumber = transactionNumber + 1;\n    }\n}\n",
  "sourcePath": "/Users/guillaume/workspace/sidetree.js/packages/sidetree-ledger-ethereum/contracts/SimpleSidetreeAnchor.sol",
  "compiler": {
    "name": "solc",
    "version": "0.5.0+commit.1d4f565a.Emscripten.clang"
  },
  "schemaVersion": "3.1.0",
  "updatedAt": "2020-06-18T16:57:20.183Z",
  "devdoc": {
    "methods": {}
  },
  "userdoc": {
    "methods": {}
  }
}